{
  "_format": "hh-sol-artifact-1",
  "contractName": "TestToken",
  "sourceName": "contracts/test.sol",
  "abi": [
    {
      "inputs": [],
      "stateMutability": "nonpayable",
      "type": "constructor"
    },
    {
      "anonymous": false,
      "inputs": [
        {
          "indexed": true,
          "internalType": "address",
          "name": "owner",
          "type": "address"
        },
        {
          "indexed": true,
          "internalType": "address",
          "name": "spender",
          "type": "address"
        },
        {
          "indexed": false,
          "internalType": "uint256",
          "name": "value",
          "type": "uint256"
        }
      ],
      "name": "Approval",
      "type": "event"
    },
    {
      "anonymous": false,
      "inputs": [
        {
          "indexed": true,
          "internalType": "address",
          "name": "previousOwner",
          "type": "address"
        },
        {
          "indexed": true,
          "internalType": "address",
          "name": "newOwner",
          "type": "address"
        }
      ],
      "name": "OwnershipTransferred",
      "type": "event"
    },
    {
      "anonymous": false,
      "inputs": [
        {
          "indexed": true,
          "internalType": "address",
          "name": "from",
          "type": "address"
        },
        {
          "indexed": true,
          "internalType": "address",
          "name": "to",
          "type": "address"
        },
        {
          "indexed": false,
          "internalType": "uint256",
          "name": "value",
          "type": "uint256"
        }
      ],
      "name": "Transfer",
      "type": "event"
    },
    {
      "inputs": [],
      "name": "ADMIN_ADDRESS",
      "outputs": [
        {
          "internalType": "address",
          "name": "",
          "type": "address"
        }
      ],
      "stateMutability": "view",
      "type": "function"
    },
    {
      "inputs": [],
      "name": "SUPPLY_ADDRESS",
      "outputs": [
        {
          "internalType": "uint256",
          "name": "",
          "type": "uint256"
        }
      ],
      "stateMutability": "view",
      "type": "function"
    },
    {
      "inputs": [],
      "name": "SUPPLY_CONTRACT",
      "outputs": [
        {
          "internalType": "uint256",
          "name": "",
          "type": "uint256"
        }
      ],
      "stateMutability": "view",
      "type": "function"
    },
    {
      "inputs": [],
      "name": "USER_ADDRESS1",
      "outputs": [
        {
          "internalType": "address",
          "name": "",
          "type": "address"
        }
      ],
      "stateMutability": "view",
      "type": "function"
    },
    {
      "inputs": [],
      "name": "USER_ADDRESS2",
      "outputs": [
        {
          "internalType": "address",
          "name": "",
          "type": "address"
        }
      ],
      "stateMutability": "view",
      "type": "function"
    },
    {
      "inputs": [],
      "name": "USER_ADDRESS3",
      "outputs": [
        {
          "internalType": "address",
          "name": "",
          "type": "address"
        }
      ],
      "stateMutability": "view",
      "type": "function"
    },
    {
      "inputs": [],
      "name": "USER_ADDRESS4",
      "outputs": [
        {
          "internalType": "address",
          "name": "",
          "type": "address"
        }
      ],
      "stateMutability": "view",
      "type": "function"
    },
    {
      "inputs": [
        {
          "internalType": "address",
          "name": "owner",
          "type": "address"
        },
        {
          "internalType": "address",
          "name": "spender",
          "type": "address"
        }
      ],
      "name": "allowance",
      "outputs": [
        {
          "internalType": "uint256",
          "name": "",
          "type": "uint256"
        }
      ],
      "stateMutability": "view",
      "type": "function"
    },
    {
      "inputs": [
        {
          "internalType": "address",
          "name": "spender",
          "type": "address"
        },
        {
          "internalType": "uint256",
          "name": "amount",
          "type": "uint256"
        }
      ],
      "name": "approve",
      "outputs": [
        {
          "internalType": "bool",
          "name": "",
          "type": "bool"
        }
      ],
      "stateMutability": "nonpayable",
      "type": "function"
    },
    {
      "inputs": [
        {
          "internalType": "address",
          "name": "account",
          "type": "address"
        }
      ],
      "name": "balanceOf",
      "outputs": [
        {
          "internalType": "uint256",
          "name": "",
          "type": "uint256"
        }
      ],
      "stateMutability": "view",
      "type": "function"
    },
    {
      "inputs": [
        {
          "internalType": "uint256",
          "name": "amount",
          "type": "uint256"
        }
      ],
      "name": "claim",
      "outputs": [],
      "stateMutability": "nonpayable",
      "type": "function"
    },
    {
      "inputs": [],
      "name": "decimals",
      "outputs": [
        {
          "internalType": "uint8",
          "name": "",
          "type": "uint8"
        }
      ],
      "stateMutability": "view",
      "type": "function"
    },
    {
      "inputs": [
        {
          "internalType": "address",
          "name": "spender",
          "type": "address"
        },
        {
          "internalType": "uint256",
          "name": "subtractedValue",
          "type": "uint256"
        }
      ],
      "name": "decreaseAllowance",
      "outputs": [
        {
          "internalType": "bool",
          "name": "",
          "type": "bool"
        }
      ],
      "stateMutability": "nonpayable",
      "type": "function"
    },
    {
      "inputs": [
        {
          "internalType": "address",
          "name": "spender",
          "type": "address"
        },
        {
          "internalType": "uint256",
          "name": "addedValue",
          "type": "uint256"
        }
      ],
      "name": "increaseAllowance",
      "outputs": [
        {
          "internalType": "bool",
          "name": "",
          "type": "bool"
        }
      ],
      "stateMutability": "nonpayable",
      "type": "function"
    },
    {
      "inputs": [],
      "name": "name",
      "outputs": [
        {
          "internalType": "string",
          "name": "",
          "type": "string"
        }
      ],
      "stateMutability": "view",
      "type": "function"
    },
    {
      "inputs": [],
      "name": "owner",
      "outputs": [
        {
          "internalType": "address",
          "name": "",
          "type": "address"
        }
      ],
      "stateMutability": "view",
      "type": "function"
    },
    {
      "inputs": [],
      "name": "priceTPD",
      "outputs": [
        {
          "internalType": "uint256",
          "name": "",
          "type": "uint256"
        }
      ],
      "stateMutability": "view",
      "type": "function"
    },
    {
      "inputs": [],
      "name": "renounceOwnership",
      "outputs": [],
      "stateMutability": "nonpayable",
      "type": "function"
    },
    {
      "inputs": [
        {
          "internalType": "address",
          "name": "_address",
          "type": "address"
        }
      ],
      "name": "setAdminAddress",
      "outputs": [],
      "stateMutability": "nonpayable",
      "type": "function"
    },
    {
      "inputs": [
        {
          "internalType": "address",
          "name": "_address",
          "type": "address"
        }
      ],
      "name": "setUserAddress1",
      "outputs": [],
      "stateMutability": "nonpayable",
      "type": "function"
    },
    {
      "inputs": [
        {
          "internalType": "address",
          "name": "_address",
          "type": "address"
        }
      ],
      "name": "setUserAddress2",
      "outputs": [],
      "stateMutability": "nonpayable",
      "type": "function"
    },
    {
      "inputs": [
        {
          "internalType": "address",
          "name": "_address",
          "type": "address"
        }
      ],
      "name": "setUserAddress3",
      "outputs": [],
      "stateMutability": "nonpayable",
      "type": "function"
    },
    {
      "inputs": [
        {
          "internalType": "address",
          "name": "_address",
          "type": "address"
        }
      ],
      "name": "setUserAddress4",
      "outputs": [],
      "stateMutability": "nonpayable",
      "type": "function"
    },
    {
      "inputs": [],
      "name": "symbol",
      "outputs": [
        {
          "internalType": "string",
          "name": "",
          "type": "string"
        }
      ],
      "stateMutability": "view",
      "type": "function"
    },
    {
      "inputs": [],
      "name": "totalSupply",
      "outputs": [
        {
          "internalType": "uint256",
          "name": "",
          "type": "uint256"
        }
      ],
      "stateMutability": "view",
      "type": "function"
    },
    {
      "inputs": [
        {
          "internalType": "address",
          "name": "recipient",
          "type": "address"
        },
        {
          "internalType": "uint256",
          "name": "amount",
          "type": "uint256"
        }
      ],
      "name": "transfer",
      "outputs": [
        {
          "internalType": "bool",
          "name": "",
          "type": "bool"
        }
      ],
      "stateMutability": "nonpayable",
      "type": "function"
    },
    {
      "inputs": [
        {
          "internalType": "address",
          "name": "from",
          "type": "address"
        },
        {
          "internalType": "address",
          "name": "to",
          "type": "address"
        },
        {
          "internalType": "uint256",
          "name": "amount",
          "type": "uint256"
        }
      ],
      "name": "transferFrom",
      "outputs": [
        {
          "internalType": "bool",
          "name": "",
          "type": "bool"
        }
      ],
      "stateMutability": "nonpayable",
      "type": "function"
    },
    {
      "inputs": [
        {
          "internalType": "address",
          "name": "newOwner",
          "type": "address"
        }
      ],
      "name": "transferOwnership",
      "outputs": [],
      "stateMutability": "nonpayable",
      "type": "function"
    },
    {
      "inputs": [],
      "name": "withdraw",
      "outputs": [],
      "stateMutability": "nonpayable",
      "type": "function"
    }
  ],
  "bytecode": "0x6080604052670de0b6b3a7640000600655600780546001600160a01b03199081167326616dc479d99e019b6173b3c160968b926de682179091556008805482167370997970c51812dc3a010c7d01b50e0d17dc79c8179055600980548216733c44cdddb6a900fa2b585dd299e03d12fa4293bc179055600a805482167390f79bf6eb2c4f870365e785982e1f101e93b906179055600b80549091167315d34aaf54267db7d7c367839aaf71a00a2c6a65179055348015620000bf57600080fd5b50604080518082018252600a8152692a32b9ba102a37b5b2b760b11b602080830191825283518085019094526002845261151560f21b9084015281519192916200010c916003916200033e565b508051620001229060049060208401906200033e565b5050506200013f620001396200020060201b60201c565b62000204565b620001553069021e19e0c9bab240000062000256565b60075462000176906001600160a01b0316683635c9adc5dea0000062000256565b60085462000197906001600160a01b0316683635c9adc5dea0000062000256565b600954620001b8906001600160a01b0316683635c9adc5dea0000062000256565b600a54620001d9906001600160a01b0316683635c9adc5dea0000062000256565b600b54620001fa906001600160a01b0316683635c9adc5dea0000062000256565b62000448565b3390565b600580546001600160a01b038381166001600160a01b0319831681179093556040519116919082907f8be0079c531659141344cd1fd0a4f28419497f9722a3daafe3b4186f6b6457e090600090a35050565b6001600160a01b038216620002b15760405162461bcd60e51b815260206004820152601f60248201527f45524332303a206d696e7420746f20746865207a65726f206164647265737300604482015260640160405180910390fd5b8060026000828254620002c59190620003e4565b90915550506001600160a01b03821660009081526020819052604081208054839290620002f4908490620003e4565b90915550506040518181526001600160a01b038316906000907fddf252ad1be2c89b69c2b068fc378daa952ba7f163c4a11628f55a4df523b3ef9060200160405180910390a35050565b8280546200034c906200040b565b90600052602060002090601f016020900481019282620003705760008555620003bb565b82601f106200038b57805160ff1916838001178555620003bb565b82800160010185558215620003bb579182015b82811115620003bb5782518255916020019190600101906200039e565b50620003c9929150620003cd565b5090565b5b80821115620003c95760008155600101620003ce565b600082198211156200040657634e487b7160e01b600052601160045260246000fd5b500190565b600181811c908216806200042057607f821691505b602082108114156200044257634e487b7160e01b600052602260045260246000fd5b50919050565b610fb080620004586000396000f3fe608060405234801561001057600080fd5b50600436106101cf5760003560e01c8063715018a611610104578063be4e3456116100a2578063dd62ed3e11610071578063dd62ed3e146103c3578063f2fde38b146103fc578063f57ad9891461040f578063fbefdd301461042257600080fd5b8063be4e345614610379578063c92938331461038a578063d6416ee61461039d578063d99e0694146103b057600080fd5b806393b31605116100de57806393b316051461033857806395d89b411461034b578063a457c2d714610353578063a9059cbb1461036657600080fd5b8063715018a61461030f5780638da5cb5b1461031757806390da925d1461032857600080fd5b8063313ce567116101715780633ccfd60b1161014b5780633ccfd60b146102c2578063542bfd51146102ca5780635c3ec07b146102d357806370a08231146102e657600080fd5b8063313ce5671461028d578063379607f51461029c57806339509351146102af57600080fd5b80631a075422116101ad5780631a075422146102275780631cdf2c1f1461023c57806323b872dd146102675780632c1e816d1461027a57600080fd5b806306fdde03146101d4578063095ea7b3146101f257806318160ddd14610215575b600080fd5b6101dc610435565b6040516101e99190610e8f565b60405180910390f35b610205610200366004610e4c565b6104c7565b60405190151581526020016101e9565b6002545b6040519081526020016101e9565b61023a610235366004610dbb565b6104df565b005b60085461024f906001600160a01b031681565b6040516001600160a01b0390911681526020016101e9565b610205610275366004610e10565b610534565b61023a610288366004610dbb565b610558565b604051601281526020016101e9565b61023a6102aa366004610e76565b6105a4565b6102056102bd366004610e4c565b610677565b61023a6106b6565b61021960065481565b60095461024f906001600160a01b031681565b6102196102f4366004610dbb565b6001600160a01b031660009081526020819052604090205490565b61023a610760565b6005546001600160a01b031661024f565b610219683635c9adc5dea0000081565b61023a610346366004610dbb565b610796565b6101dc6107e2565b610205610361366004610e4c565b6107f1565b610205610374366004610e4c565b610883565b61021969021e19e0c9bab240000081565b61023a610398366004610dbb565b610899565b61023a6103ab366004610dbb565b6108e5565b600b5461024f906001600160a01b031681565b6102196103d1366004610ddd565b6001600160a01b03918216600090815260016020908152604080832093909416825291909152205490565b61023a61040a366004610dbb565b610931565b60075461024f906001600160a01b031681565b600a5461024f906001600160a01b031681565b60606003805461044490610f3f565b80601f016020809104026020016040519081016040528092919081815260200182805461047090610f3f565b80156104bd5780601f10610492576101008083540402835291602001916104bd565b820191906000526020600020905b8154815290600101906020018083116104a057829003601f168201915b5050505050905090565b6000336104d58185856109c9565b5060019392505050565b6005546001600160a01b031633146105125760405162461bcd60e51b815260040161050990610ee4565b60405180910390fd5b600a80546001600160a01b0319166001600160a01b0392909216919091179055565b600033610542858285610aed565b61054d858585610b7f565b506001949350505050565b6005546001600160a01b031633146105825760405162461bcd60e51b815260040161050990610ee4565b600780546001600160a01b0319166001600160a01b0392909216919091179055565b6007546001600160a01b0316331461060a5760405162461bcd60e51b815260206004820152602360248201527f41646d696e20726f6c653a2063616c6c6572206973206e6f742074686520616460448201526236b4b760e91b6064820152608401610509565b306000908152602081905260409020548111156106695760405162461bcd60e51b815260206004820152601c60248201527f54686520616d6f756e74206f6620636c61696d206973206f7665722e000000006044820152606401610509565b610674303383610b7f565b50565b3360008181526001602090815260408083206001600160a01b03871684529091528120549091906104d590829086906106b1908790610f19565b6109c9565b6005546001600160a01b031633146106e05760405162461bcd60e51b815260040161050990610ee4565b600047116107275760405162461bcd60e51b81526020600482015260146024820152732a3432b9329034b9903737903130b630b731b29760611b6044820152606401610509565b6005546040516001600160a01b03909116904780156108fc02916000818181858888f19350505050158015610674573d6000803e3d6000fd5b6005546001600160a01b0316331461078a5760405162461bcd60e51b815260040161050990610ee4565b6107946000610d4d565b565b6005546001600160a01b031633146107c05760405162461bcd60e51b815260040161050990610ee4565b600880546001600160a01b0319166001600160a01b0392909216919091179055565b60606004805461044490610f3f565b3360008181526001602090815260408083206001600160a01b0387168452909152812054909190838110156108765760405162461bcd60e51b815260206004820152602560248201527f45524332303a2064656372656173656420616c6c6f77616e63652062656c6f77604482015264207a65726f60d81b6064820152608401610509565b61054d82868684036109c9565b6000610890338484610b7f565b50600192915050565b6005546001600160a01b031633146108c35760405162461bcd60e51b815260040161050990610ee4565b600980546001600160a01b0319166001600160a01b0392909216919091179055565b6005546001600160a01b0316331461090f5760405162461bcd60e51b815260040161050990610ee4565b600b80546001600160a01b0319166001600160a01b0392909216919091179055565b6005546001600160a01b0316331461095b5760405162461bcd60e51b815260040161050990610ee4565b6001600160a01b0381166109c05760405162461bcd60e51b815260206004820152602660248201527f4f776e61626c653a206e6577206f776e657220697320746865207a65726f206160448201526564647265737360d01b6064820152608401610509565b61067481610d4d565b6001600160a01b038316610a2b5760405162461bcd60e51b8152602060048201526024808201527f45524332303a20617070726f76652066726f6d20746865207a65726f206164646044820152637265737360e01b6064820152608401610509565b6001600160a01b038216610a8c5760405162461bcd60e51b815260206004820152602260248201527f45524332303a20617070726f766520746f20746865207a65726f206164647265604482015261737360f01b6064820152608401610509565b6001600160a01b0383811660008181526001602090815260408083209487168084529482529182902085905590518481527f8c5be1e5ebec7d5bd14f71427d1e84f3dd0314c0f7b2291e5b200ac8c7c3b925910160405180910390a3505050565b6001600160a01b038381166000908152600160209081526040808320938616835292905220546000198114610b795781811015610b6c5760405162461bcd60e51b815260206004820152601d60248201527f45524332303a20696e73756666696369656e7420616c6c6f77616e63650000006044820152606401610509565b610b7984848484036109c9565b50505050565b6001600160a01b038316610be35760405162461bcd60e51b815260206004820152602560248201527f45524332303a207472616e736665722066726f6d20746865207a65726f206164604482015264647265737360d81b6064820152608401610509565b6001600160a01b038216610c455760405162461bcd60e51b815260206004820152602360248201527f45524332303a207472616e7366657220746f20746865207a65726f206164647260448201526265737360e81b6064820152608401610509565b6001600160a01b03831660009081526020819052604090205481811015610cbd5760405162461bcd60e51b815260206004820152602660248201527f45524332303a207472616e7366657220616d6f756e7420657863656564732062604482015265616c616e636560d01b6064820152608401610509565b6001600160a01b03808516600090815260208190526040808220858503905591851681529081208054849290610cf4908490610f19565b92505081905550826001600160a01b0316846001600160a01b03167fddf252ad1be2c89b69c2b068fc378daa952ba7f163c4a11628f55a4df523b3ef84604051610d4091815260200190565b60405180910390a3610b79565b600580546001600160a01b038381166001600160a01b0319831681179093556040519116919082907f8be0079c531659141344cd1fd0a4f28419497f9722a3daafe3b4186f6b6457e090600090a35050565b80356001600160a01b0381168114610db657600080fd5b919050565b600060208284031215610dcd57600080fd5b610dd682610d9f565b9392505050565b60008060408385031215610df057600080fd5b610df983610d9f565b9150610e0760208401610d9f565b90509250929050565b600080600060608486031215610e2557600080fd5b610e2e84610d9f565b9250610e3c60208501610d9f565b9150604084013590509250925092565b60008060408385031215610e5f57600080fd5b610e6883610d9f565b946020939093013593505050565b600060208284031215610e8857600080fd5b5035919050565b600060208083528351808285015260005b81811015610ebc57858101830151858201604001528201610ea0565b81811115610ece576000604083870101525b50601f01601f1916929092016040019392505050565b6020808252818101527f4f776e61626c653a2063616c6c6572206973206e6f7420746865206f776e6572604082015260600190565b60008219821115610f3a57634e487b7160e01b600052601160045260246000fd5b500190565b600181811c90821680610f5357607f821691505b60208210811415610f7457634e487b7160e01b600052602260045260246000fd5b5091905056fea26469706673582212202405bb6f297a35105b6cdb949406769ba61746fdb905fa79279b3093312e696e64736f6c63430008070033",
  "linkReferences": {},
  "deployedLinkReferences": {}
}